:1000000012C0189518951895189518951895189563
:100010001895189518951895189518951895189578
:100020001895189518958FE58DBFC8E3E0E24E2E20
:1000300084E08EBFD4E0F4E05F2EA89584B7082E4C
:10004000877F84BF88E1992781BD91BDEEEFF3E002
:10005000A0E6B0E088278D933197E9F78CE089B965
:1000600080E080BD88E18AB96624B89AB99ABA9AC4
:1000700074B7777F74BF8BE181BD83E081BD8A9ABD
:1000800086E886B980E487B9379AE0E0F0E0A0E13D
:10009000B0E07DD4003281E008F480E08F93E0E0AE
:1000A000F0E0A0E1B0E073D40D3781E010F009F08A
:1000B00080E09F918923882309F406C0E0E0F0E006
:1000C000A0EAB0E064D403C080E28093A000A1EA7B
:1000D000B0E0E0EAF0E0FED381B5886081BD7091C8
:1000E00098007160709398000091A000003209F0B0
:1000F00005C07091980072607093980025D3AFE7A7
:10010000B0E08C9300917F00013009F01CC020D337
:10011000A0E8B0E08C934091A0000091800004170B
:1001200081E009F080E08F93009180000E3781E03C
:1001300009F080E09F91892B882309F404C08BEC9F
:100140008093910044C000919100003010F009F0BC
:1001500001C005C080919100815080939100009171
:100160009100083C09F001C0C19A00919100003053
:1001700009F001C0C19800919200003010F009F020
:1001800001C005C08091920081508093920000913F
:100190009200083C09F001C0C29A00919200003020
:1001A00009F001C0C29800919800003009F002C027
:1001B000C09A02C0C098C29AA895EF93FF93E0E658
:1001C000F0E0E7D2FF91EF9199CFF894FFCFFFD302
:1001D000A1E8B0E0E9E0A5D2F7D382E0E1E8F0E001
:1001E00001E00A93ADE8B0E0ACD384E0E1E8F0E0F0
:1001F00001E00A93AFE8B0E0A4D386E0E1E8F0E0E4
:1002000004E00A93A3E9B0E09CD3A3E9B0E07AD379
:10021000ABE8B0E00D931C93ADE8B0E0E4EDF9E09D
:10022000C0D309F025C0AFE8B0E0E6EDF9E0B9D3FE
:1002300009F01DC080E090E0A9E9B0E08D939C93A7
:10024000ABE9B0E0E9E9F0E047D3E1EAF0E0A0E6AD
:10025000B0E072D3A0E6B0E05BD2E8EDF9E0BCD24A
:10026000EBE9F0E0A0E6B0E053D266D32DD246CF62
:10027000ADE8B0E0EEEDF9E094D309F097C0AFE857
:10028000B0E0E6EDF9E08DD309F01EC080E090E02B
:10029000A9E9B0E08D939C93ABE9B0E0E9E9F0E027
:1002A0001BD3E1EAF0E0A0E6B0E046D3A0E6B0E080
:1002B0002FD2E0EEF9E090D2EBE9F0E0A0E6B0E07A
:1002C00027D23AD301D271C0E6EEF9E06AD309F041
:1002D00021C007B1007F006007B983D2A9E9B0E06F
:1002E0008D939C93ABE9B0E0E9E9F0E0F5D2E1EA67
:1002F000F0E0A0E6B0E020D3A0E6B0E009D2E8EE5E
:10030000F9E06AD2EBE9F0E0A0E6B0E001D214D364
:10031000DBD14BC0EEEEF9E044D309F021C007B1C8
:10032000007F016007B95DD2A9E9B0E08D939C938D
:10033000ABE9B0E0E9E9F0E0CFD2E1EAF0E0A0E635
:10034000B0E0FAD2A0E6B0E0E3D1E0EFF9E044D2C9
:10035000EBE9F0E0A0E6B0E0DBD1EED2B5D125C00C
:10036000E6EFF9E01ED309F020C007B1007F02607C
:1003700007B937D2A9E9B0E08D939C93ABE9B0E01F
:10038000E9E9F0E0A9D2E1EAF0E0A0E6B0E0D4D2F9
:10039000A0E6B0E0BDD1E8EFF9E01ED2EBE9F0E075
:1003A000A0E6B0E0B5D1C8D28FD1A8CEADE8B0E01C
:1003B000EEEFF9E0F6D209F010C1AFE8B0E0E6EDFB
:1003C000F9E0EFD209F051C0A3E9B0E08C918030A0
:1003D00009F433C0ABE8B0E00D911C91073050E058
:1003E000150710F009F001C006C087E090E0ABE807
:1003F000B0E08D939C93ABE8B0E00C9100FB0EF065
:1004000005C0709198007E7F70939800ABE8B0E0D3
:100410000C9101FB0EF005C0709198007D7F7093E8
:100420009800ABE8B0E00C9102FB0EF006C0A8E922
:10043000B0E08C9194E089278C93ABE9B0E0E8E9D7
:10044000F0E048D2E1EAF0E0A0E6B0E075D2A0E644
:10045000B0E05ED1E0E0FAE0BFD1EBE9F0E0A0E689
:10046000B0E056D169D230D1B7C0E6EEF9E099D20A
:1004700009F00DC0E1EAF0E0A0E6B0E05DD2A0E650
:10048000B0E046D1E6E0FAE0A7D11ED1A5C0EEEE7D
:10049000F9E087D209F00DC0E1EAF0E0A0E6B0E0B3
:1004A0004BD2A0E6B0E034D1E0E1FAE095D10CD136
:1004B00093C0E6EFF9E075D209F018C0A5EAB0E004
:1004C000EAE1FAE089D1E1EAF0E0A0E6B0E034D276
:1004D000A0E6B0E01DD1E0E2FAE07ED1E5EAF0E08E
:1004E000A0E6B0E015D128D2EFD076C0E6E2FAE07F
:1004F00058D209F018C0A5EAB0E0E8E2FAE06CD101
:10050000E1EAF0E0A0E6B0E017D2A0E6B0E000D16A
:10051000ECE3FAE061D1E5EAF0E0A0E6B0E0F8D083
:100520000BD2D2D059C0E2E4FAE03BD209F00DC0C0
:10053000E1EAF0E0A0E6B0E0FFD1A0E6B0E0E8D06C
:10054000E4E4FAE049D1C0D047C0E0E5FAE029D2BE
:1005500009F00DC0E1EAF0E0A0E6B0E0EDD1A0E6E0
:10056000B0E0D6D0E2E5FAE037D1AED035C0EEE566
:10057000FAE017D209F00DC0E1EAF0E0A0E6B0E041
:10058000DBD1A0E6B0E0C4D0E0E6FAE025D19CD013
:1005900023C0EAE6FAE005D209F00DC0E1EAF0E096
:1005A000A0E6B0E0C9D1A0E6B0E0B2D0ECE6FAE057
:1005B00013D18AD011C0E6E7FAE0F3D109F00CC0FC
:1005C000E1EAF0E0A0E6B0E0B7D1A0E6B0E0A0D06C
:1005D000E8E7FAE001D178D091CDADE8B0E0E2E80B
:1005E000FAE0DFD109F06DC0AFE8B0E0E6EDF9E088
:1005F000D8D109F010C0E1EAF0E0A0E6B0E09CD16B
:10060000A0E6B0E085D0E4E8FAE0E6D05DD0E1E035
:10061000F0E0B9D055C0E6EEF9E0C3D109F050C022
:10062000ABE8B0E00D911C91003250E0150781E07D
:1006300008F480E08F93ABE8B0E00D911C910D378A
:1006400050E0150781E010F009F080E09F918923C8
:10065000882309F40BC0E0E0F0E0ABE8B0E07BE712
:1006600085D1E0E0F0E0A0EAB0E091D1E1EAF0E08D
:10067000A0E6B0E061D1A0E6B0E04AD0EEE8FAE052
:10068000ABD0A0E6B0E044D0E0EAF0E023D11CD04B
:1006900081E09CD0A881B981E0EAF0E01BD1E8813B
:1006A000F981A1EAB0E07FD10FB681E0481A80E07D
:1006B000580A22960FBE09F403C0E1E0F0E063D0CF
:1006C0001DCD1CCDF894FFCF8BEC80939200A0E65B
:1006D000B0E09AD0A4EAB0E08C93929AE0E6F0E021
:1006E000A8E0B4E029D1A8E0B4E012D0E6E9FAE04D
:1006F00073D0A8E0B4E00CD0E4EAF0E0A5D030D0AC
:1007000037D05E9BFECF5E9A92980895F894FFCF03
:100710008F938D918823E9F711978F910895A8E021
:10072000B4E01AD08D3039F0EE23D9F38D93EA95E9
:1007300063FE21D0F6CF63FC04C08DE01CD08AE0BC
:100740001AD088278C93089581E05F9B88270895AD
:1007500088275F9B089500C05F9BFECF8CB10895F2
:10076000A8E0B4E08D91882311F005D0FBCF089567
:100770008DE001D08AE05D9BFECF0FB6F8948CB976
:100780005E9A0FBE089588EE93E00CD03197D9F7AA
:1007900008953197F1F70895689462F80895E89400
:1007A00062F80895EF93FF93EE27E82BE92B31F0E1
:1007B000E0EDF7E03197F1F70197D1F7FF91EF9175
:1007C00008950191119121913081089599275A92AC
:1007D0004A92480E591E08950DD00D920020E1F75F
:1007E0000895369A3699FECF369A3699FECF84B15F
:1007F00095B10895C895319600200895813618F076
:100800008B3708F48F7D089588279D91890F992350
:10081000E1F70895000F111F221F331F089500955F
:100820001095209530950F5F1F4F2F4F3F4F089524
:10083000019110810BC0C5DF0BC00191108117FF22
:1008400005C03FEF2FEF04C0008111272227332777
:1008500037FF03C0E4DF8DE28D93CF92DF92EF92FA
:10086000AA24BB24CC24DD24EE2440E2EAE0FF27C6
:1008700055E093E38081890F87FD9F7083FD907F12
:10088000891B81935A95A9F7C5DFAA1CBB1CCC1CF8
:10089000DD1CEE1C4A9551F7E894EFE0FF278291AA
:1008A0000CD0EB30E0F71EF068948A2D0AD0882730
:1008B0008D93EF90DF90CF900895982F829501D07F
:1008C000892F8F70805D26F0803309F40895689435
:1008D0008D93089541E003C042E001C044E0E40F7D
:1008E0008827F81F8291982F829505D0892F03D0F1
:1008F0004A95C1F71EC08F708A3008F0895F805D0D
:100900008D93089500271127222733278D9188235F
:1009100079F080DF7FDF7EDF7DDF70DF815408F4D8
:10092000895F865F080F8827181F281F381FEECFA2
:10093000089588278D93089581918D938823E1F7F9
:10094000089509919191992351F08A95D9F731979A
:10095000002329F081918D930A958823C9F7E9CF67
:10096000E199FECFEEBBFFBB3196089591E001C047
:1009700092E07B3751F47FB7F894F2DF8D918DBB15
:10098000E29AE19A9A95C9F77FBF7727089591E097
:1009900001C092E0E5DFE09A8DB38D939A95D1F78F
:1009A0000895689401C0E894AF93BF938D9116F0B9
:1009B000919102C01FDF902D891718F011F4882340
:1009C000A9F7BF91AF910895E89463F808956894EA
:1009D00063F808956F0030002C6F2C303A006900E6
:1009E0002C692C303A0031002C692C313A0032004D
:1009F0002C692C323A0033002C692C333A007300F6
:100A00002C732C303A002C732C313A3135360000DF
:100A10002C732C323A4F4D553300312E312E32008B
:100A20002C732C333A00340030312D30392D3230D4
:100A300032302032333A32363A3232002C732C3490
:100A40003A0035002C732C353A312E302E30000010
:100A500036002C732C363A322E312E3100003700FE
:100A60002C732C373A303030300038002C732C384F
:100A70003A303330410039002C732C393A30303061
:100A8000300075002C752C303A30303031002C7528
:080A90002C313A303000230044
:00000001FF
