:1000000012C0189518951895189518951895189563
:100010001895189518951895189518951895189578
:100020001895189518958FE58DBFC8E3E0E24E2E20
:1000300084E08EBFD4E0F4E05F2EA89584B7082E4C
:10004000877F84BF88E1992781BD91BDEEEFF3E002
:10005000A0E6B0E088278D933197E9F78CE089B965
:1000600080E080BD88E18AB96624B89AB99A74B7ED
:10007000777F74BF8BE181BD83E081BD8A9A86E87A
:1000800086B980E487B9379AE0E0F0E0A0E1B0E01B
:1000900062D4003281E008F480E08F93E0E0F0E089
:1000A000A0E1B0E058D40D3781E010F009F080E015
:1000B0009F918923882309F406C0E0E0F0E0AFE9CE
:1000C000B0E049D403C080E280939F00A0EAB0E092
:1000D000EFE9F0E0E3D381B5886081BD70919700CE
:1000E00071607093970000919F00003209F005C085
:1000F000709197007260709397000AD3AFE7B0E0F9
:100100008C9300917F00013009F01CC005D3A0E85A
:10011000B0E08C9340919F0000918000041781E033
:1001200009F080E08F93009180000E3781E009F0A4
:1001300080E09F91892B882309F404C08BEC809385
:1001400091002CC000919100003010F009F001C026
:1001500005C08091910081508093910000919100A1
:10016000083C09F001C0C19A00919100003009F0EB
:1001700001C0C19800919700003009F002C0C09AF8
:1001800002C0C098C19AA895EF93FF93E0E6F0E013
:10019000E4D2FF91EF91B1CFF894FFCFFCD3A1E867
:1001A000B0E0E9E0A2D2F4D382E0E1E8F0E001E0DF
:1001B0000A93ADE8B0E0A9D384E0E1E8F0E001E023
:1001C0000A93AFE8B0E0A1D386E0E1E8F0E004E014
:1001D0000A93A2E9B0E099D3A2E9B0E077D3ABE803
:1001E000B0E00D931C93ADE8B0E0ECE9F9E0BDD3CD
:1001F00009F025C0AFE8B0E0EEE9F9E0B6D309F0C8
:100200001DC080E090E0A8E9B0E08D939C93AAE93E
:10021000B0E0E8E9F0E044D3E0EAF0E0A0E6B0E0E6
:100220006FD3A0E6B0E058D2E0EAF9E0B9D2EAE94B
:10023000F0E0A0E6B0E050D263D32DD25ECFADE8BF
:10024000B0E0E6EAF9E091D309F097C0AFE8B0E09A
:10025000EEE9F9E08AD309F01EC080E090E0A8E959
:10026000B0E08D939C93AAE9B0E0E8E9F0E018D300
:10027000E0EAF0E0A0E6B0E043D3A0E6B0E02CD2A4
:10028000E8EAF9E08DD2EAE9F0E0A0E6B0E024D2B5
:1002900037D301D271C0EEEAF9E067D309F021C08B
:1002A00007B1007F006007B980D2A8E9B0E08D9364
:1002B0009C93AAE9B0E0E8E9F0E0F2D2E0EAF0E0ED
:1002C000A0E6B0E01DD3A0E6B0E006D2E0EBF9E096
:1002D00067D2EAE9F0E0A0E6B0E0FED111D3DBD1CD
:1002E0004BC0E6EBF9E041D309F021C007B1007F34
:1002F000016007B95AD2A8E9B0E08D939C93AAE9AE
:10030000B0E0E8E9F0E0CCD2E0EAF0E0A0E6B0E06E
:10031000F7D2A0E6B0E0E0D1E8EBF9E041D2EAE9BB
:10032000F0E0A0E6B0E0D8D1EBD2B5D125C0EEEB3D
:10033000F9E01BD309F020C007B1007F026007B9C4
:1003400034D2A8E9B0E08D939C93AAE9B0E0E8E943
:10035000F0E0A6D2E0EAF0E0A0E6B0E0D1D2A0E67C
:10036000B0E0BAD1E0ECF9E01BD2EAE9F0E0A0E6B7
:10037000B0E0B2D1C5D28FD1C0CEADE8B0E0E6ECEE
:10038000F9E0F3D209F010C1AFE8B0E0EEE9F9E02E
:10039000ECD209F051C0A2E9B0E08C91803009F4B0
:1003A00033C0ABE8B0E00D911C91073050E0150769
:1003B00010F009F001C006C087E090E0ABE8B0E0C3
:1003C0008D939C93ABE8B0E00C9100FB0EF005C060
:1003D000709197007E7F70939700ABE8B0E00C912E
:1003E00001FB0EF005C0709197007D7F7093970020
:1003F000ABE8B0E00C9102FB0EF006C0A7E9B0E05C
:100400008C9194E089278C93AAE9B0E0E7E9F0E0C9
:1004100045D2E0EAF0E0A0E6B0E072D2A0E6B0E0BB
:100420005BD1E8ECF9E0BCD1EAE9F0E0A0E6B0E0AD
:1004300053D166D230D1B7C0EEEAF9E096D209F0D6
:100440000DC0E0EAF0E0A0E6B0E05AD2A0E6B0E0ED
:1004500043D1EEECF9E0A4D11ED1A5C0E6EBF9E062
:1004600084D209F00DC0E0EAF0E0A0E6B0E048D2A6
:10047000A0E6B0E031D1E8EDF9E092D10CD193C023
:10048000EEEBF9E072D209F018C0A4EAB0E0E2EEB7
:10049000F9E086D1E0EAF0E0A0E6B0E031D2A0E6F3
:1004A000B0E01AD1E8EEF9E07BD1E4EAF0E0A0E6B2
:1004B000B0E012D125D2EFD076C0EEEEF9E055D201
:1004C00009F018C0A4EAB0E0E0EFF9E069D1E0EA91
:1004D000F0E0A0E6B0E014D2A0E6B0E0FDD0E4E0A9
:1004E000FAE05ED1E4EAF0E0A0E6B0E0F5D008D2B0
:1004F000D2D059C0EAE0FAE038D209F00DC0E0EA03
:10050000F0E0A0E6B0E0FCD1A0E6B0E0E5D0ECE0A1
:10051000FAE046D1C0D047C0E8E1FAE026D209F0BF
:100520000DC0E0EAF0E0A0E6B0E0EAD1A0E6B0E07D
:10053000D3D0EAE1FAE034D1AED035C0E6E2FAE059
:1005400014D209F00DC0E0EAF0E0A0E6B0E0D8D1A6
:10055000A0E6B0E0C1D0E8E2FAE022D19CD023C00E
:10056000E2E3FAE002D209F00DC0E0EAF0E0A0E632
:10057000B0E0C6D1A0E6B0E0AFD0E4E3FAE010D13D
:100580008AD011C0EEE3FAE0F0D109F00CC0E0EA45
:10059000F0E0A0E6B0E0B4D1A0E6B0E09DD0E0E4A9
:1005A000FAE0FED078D0A9CDADE8B0E0EAE4FAE018
:1005B000DCD109F06DC0AFE8B0E0EEE9F9E0D5D1EB
:1005C00009F010C0E0EAF0E0A0E6B0E099D1A0E6C2
:1005D000B0E082D0ECE4FAE0E3D05DD0E1E0F0E01E
:1005E000B6D055C0EEEAF9E0C0D109F050C0ABE892
:1005F000B0E00D911C91003250E0150781E008F445
:1006000080E08F93ABE8B0E00D911C910D3750E086
:10061000150781E010F009F080E09F91892388237D
:1006200009F40BC0E0E0F0E0ABE8B0E07BE782D19A
:10063000E0E0F0E0AFE9B0E08ED1E0EAF0E0A0E683
:10064000B0E05ED1A0E6B0E047D0E6E5FAE0A8D0A1
:10065000A0E6B0E041D0EFE9F0E020D11CD081E08D
:1006600099D0A881B981EFE9F0E018D1E881F9814A
:10067000A0EAB0E07CD10FB681E0481A80E0580AC9
:1006800022960FBE09F403C0E1E0F0E060D035CD62
:1006900034CDF894FFCFA0E6B0E09AD0A3EAB0E062
:1006A0008C93929AE0E6F0E0A8E0B4E029D1A8E0CB
:1006B000B4E012D0EEE5FAE073D0A8E0B4E00CD0DC
:1006C000E3EAF0E0A5D030D037D05E9BFECF5E9A53
:1006D00092980895F894FFCF8F938D918823E9F72E
:1006E00011978F910895A8E0B4E01AD08D3039F0B9
:1006F000EE23D9F38D93EA9563FE21D0F6CF63FC08
:1007000004C08DE01CD08AE01AD088278C9308950D
:1007100081E05F9B8827089588275F9B089500C02C
:100720005F9BFECF8CB10895A8E0B4E08D91882343
:1007300011F005D0FBCF08958DE001D08AE05D9BDC
:10074000FECF0FB6F8948CB95E9A0FBE089588EE6E
:1007500093E00CD03197D9F708953197F1F70895C8
:10076000689462F80895E89462F80895EF93FF930F
:10077000EE27E82BE92B31F0E0EDF7E03197F1F7C8
:100780000197D1F7FF91EF91089501911191219176
:100790003081089599275A924A92480E591E089519
:1007A0000DD00D920020E1F70895369A3699FECFCC
:1007B000369A3699FECF84B195B10895C895319691
:1007C00000200895813618F08B3708F48F7D089546
:1007D00088279D91890F9923E1F70895000F111F34
:1007E000221F331F089500951095209530950F5FB7
:1007F0001F4F2F4F3F4F0895019110810BC0C5DF50
:100800000BC00191108117FF05C03FEF2FEF04C00F
:10081000008111272227332737FF03C0E4DF8DE251
:100820008D93CF92DF92EF92AA24BB24CC24DD24B7
:10083000EE2440E2EAE0FF2755E093E38081890F50
:1008400087FD9F7083FD907F891B81935A95A9F73F
:10085000C5DFAA1CBB1CCC1CDD1CEE1C4A9551F745
:10086000E894EFE0FF2782910CD0EB30E0F71EF028
:1008700068948A2D0AD088278D93EF90DF90CF90CF
:100880000895982F829501D0892F8F70805D26F072
:10089000803309F4089568948D93089541E003C06E
:1008A00042E001C044E0E40F8827F81F8291982FAE
:1008B000829505D0892F03D04A95C1F71EC08F704D
:1008C0008A3008F0895F805D8D9308950027112795
:1008D000222733278D91882379F080DF7FDF7EDF29
:1008E0007DDF70DF815408F4895F865F080F8827F9
:1008F000181F281F381FEECF089588278D9308955D
:1009000081918D938823E1F708950991919199231D
:1009100051F08A95D9F73197002329F081918D9371
:100920000A958823C9F7E9CFE199FECFEEBBFFBB5B
:100930003196089591E001C092E07B3751F47FB782
:10094000F894F2DF8D918DBBE29AE19A9A95C9F7FE
:100950007FBF7727089591E001C092E0E5DFE09A3C
:100960008DB38D939A95D1F70895689401C0E8945A
:10097000AF93BF938D9116F0919102C01FDF902D20
:10098000891718F011F48823A9F7BF91AF91089542
:10099000E89463F80895689463F808956F00300050
:1009A0002C6F2C303A0069002C692C303A00310051
:1009B0002C692C313A0032002C692C323A00330079
:1009C0002C692C333A0073002C732C303A002C73B2
:1009D0002C313A31353600002C732C323A4F4D55BC
:1009E0003300312E302E37002C732C333A00340074
:1009F00030312D30392D323032302032333A3232EC
:100A00003A3032002C732C343A0035002C732C35DC
:100A10003A312E302E30000036002C732C363A320C
:100A20002E312E31000037002C732C373A30303005
:100A3000300038002C732C383A3033304100390004
:100A40002C732C393A303030300075002C752C3036
:100A50003A30303031002C752C313A3030002300E0
:00000001FF
